:1000000000000020FD0400007B94000081940000AB
:10001000879400008D94000093940000000000007D
:100020000000000000000000000000006D0500005E
:100030009994000000000000130600007306000001
:10004000399300004793000055930000639300002C
:10005000719300007F9300008D9300009B9300003C
:10006000A9930000B7930000C5930000D39300004C
:10007000E1930000EF930000FD9300000B9400005B
:10008000199400009F940000A5940000AB94000018
:10009000B1940000B7940000BD940000C394000028
:1000A000C9940000CF940000D5940000DB940000B8
:1000B000E1940000E7940000ED9400002794000014
:1000C000F394000035940000F9940000439400007C
:1000D000FF94000051940000059500000B9500006E
:1000E00011950000179500001D9500002395000054
:1000F000299500002F950000359500003B950000E4
:100100000D0500000D0500000D0500000D050000A7
:1001100041950000479500004D9500005395000063
:10012000599500005F950000659500006B950000F3
:1001300071950000779500007D9500008395000083
:10014000899500008F9500005F9400009595000050
:100150006D9400009B950000A1950000A7950000FC
:10016000AD950000B3950000B9950000BF95000063
:10017000C5950000CB950000D1950000D7950000F3
:10018000DD9500000D0500000D0500000D050000C7
:100190000D0500000D0500000D0500000D05000017
:1001A0000D0500000D0500000D0500000D05000007
:1001B0000D0500000D0500000D0500000D050000F7
:1001C0000D0500000D0500000D0500000D050000E7
:1003F0000D0500000D0500000D050000FFFFFFFFCB
:10040000FFFFFFFFFFFFFFFFFFFFFFFFFEFFFFFFFD
:1004400010B5054C237833B9044B13B10448AFF30E
:1004500000800123237010BD7010002000000000F8
:100460000020010008B5034B1BB103490348AFF35B
:10047000008008BD00000000741000200020010072
:10048000A3F5803A704700BF174B002B08BF134BF2
:100490009D46FFF7F5FF00218B460F461348144A8F
:1004A000121A0EF07DF80E4B002B00D098470D4B22
:1004B000002B00D098470020002104000D000D48BB
:1004C000002802D00C480DF047FD0DF08BFD2000F8
:1004D000290003F00FFD0DF04BFD00BF00000800E8
:1004E000000000001998000000000020701000209B
:1004F0008C7A002059DF000091DF000072B608F00E
:1005000033FB08F0C9FA62B6FFF7BEFFFFF7FEBF84
:1005100080F309887047EFF309807047684680F3DD
:1005200009885A480078C00714BF0220032080F3CE
:1005300014887047DFF858C1EFF305831B0618BF16
:100540006047EFF31483DB0708BF604700DF7047A5
:10055000DFF840C1EFF305831B0618BF6047EFF3D8
:100560001483DB0708BF604700DF7047EFF30980A3
:10057000816911F8021CE1BB90E80F1010B5E0474B
:10058000BDE81040EFF3098C8CE80700424B93E87C
:100590000600914208BF704741B91EF0100F16D1F6
:1005A0003E49086820F00100086010E01EF0100FBE
:1005B00006BF2CED108A0120002081F825002CE9CF
:1005C000F00FC1F828C00CB40AF0B6FC0CBC1A60DD
:1005D000D2F828C0BCE8F00F92F8250000280EBF22
:1005E0006FF0020E6FF0120EBCEC108A8CF30988CB
:1005F000704710B52A4A1268914209D8294C54F81C
:10060000214090E80F10A047EFF3098C8CE80F0011
:1006100010BD10B50AF002FCBDE810401E4B93E877
:100620000600914208BF7047EFF3098C1EF0100FCF
:1006300006BF2CED108A0120002081F825002CE94E
:10064000F00FC1F828C00CB40AF076FC0CBC1A609C
:10065000D2F828C0BCE8F00F92F8250000280EBFA1
:100660006FF0020E6FF0120EBCEC108A8CF309884A
:10067000704710B50AF042FCFFF7CEBF10B50AF084
:100680003BFC0AF03BFCFFF7C7BF0000300E010047
:10069000A9A70000C5A70000287A002034EF00E0D9
:1006A00000000000FCFFFFFF81F0004102E000BFFE
:1006B00083F0004330B54FEA41044FEA430594EA22
:1006C000050F08BF90EA020F1FBF54EA000C55EA5D
:1006D000020C7FEA645C7FEA655C00F0E2804FEA2E
:1006E0005454D4EB5555B8BF6D420CDD2C4480EA10
:1006F000020281EA030382EA000083EA010180EA40
:10070000020281EA0303362D88BF30BD11F0004F8D
:100710004FEA01314FF4801C4CEA113102D04042C3
:1007200061EB410113F0004F4FEA03334CEA1333FE
:1007300002D0524263EB430394EA050F00F0A78016
:10074000A4F10104D5F1200E0DDB02FA0EFC22FA11
:1007500005F2801841F1000103FA0EF2801843FA05
:1007600005F359410EE0A5F120050EF1200E012AF6
:1007700003FA0EFC28BF4CF0020C43FA05F3C01834
:1007800051EBE37101F0004507D54FF0000EDCF1AD
:10079000000C7EEB00006EEB0101B1F5801F1BD356
:1007A000B1F5001F0CD349085FEA30004FEA3C0C5A
:1007B00004F101044FEA445212F5800F80F09A8050
:1007C000BCF1004F08BF5FEA500C50F1000041EB54
:1007D000045141EA050130BD5FEA4C0C404141EB58
:1007E0000101013C28BFB1F5801FE9D291F0000F53
:1007F00004BF01460020B1FA81F308BF2033A3F102
:100800000B03B3F120020CDA0C3208DD02F1140CF8
:10081000C2F10C0201FA0CF021FA02F10CE002F133
:100820001402D8BFC2F1200C01FA02F120FA0CFC2C
:10083000DCBF41EA0C019040E41AA2BF01EB045175
:10084000294330BD6FEA04041F3C1CDA0C340EDC73
:1008500004F11404C4F1200220FA04F001FA02F3B6
:1008600040EA030021FA04F345EA030130BDC4F174
:100870000C04C4F1200220FA02F001FA04F340EA69
:100880000300294630BD21FA04F0294630BD94F01A
:10089000000F83F4801306BF81F480110134013D01
:1008A0004EE77FEA645C18BF7FEA655C29D094EA72
:1008B000050F08BF90EA020F05D054EA000C04BFF0
:1008C0001946104630BD91EA030F1EBF00210020DB
:1008D00030BD5FEA545C05D14000494128BF41F07A
:1008E000004130BD14F580043CBF01F5801130BDDE
:1008F00001F0004545F0FE4141F470014FF0000069
:1009000030BD7FEA645C1ABF194610467FEA655C19
:100910001CBF0B46024650EA013406BF52EA0335BB
:1009200091EA030F41F4002130BD00BF90F0000FA9
:1009300004BF0021704730B54FF4806404F13204E5
:100940004FF000054FF0000150E700BF90F0000F9E
:1009500004BF0021704730B54FF4806404F13204C5
:1009600010F0004548BF40424FF000013EE700BF95
:1009700042004FEAE2014FEA31014FEA02701FBF25
:1009800012F07F4393F07F4F81F06051704732F057
:100990007F4208BF704793F07F4F04BF41F40021AE
:1009A000704730B54FF4607401F0004521F000410C
:1009B0001CE700BF50EA010208BF704730B54FF096
:1009C00000050AE050EA010208BF704730B511F097
:1009D000004502D5404261EB41014FF4806404F1CF
:1009E00032045FEA915C3FF4D8AE4FF003025FEA55
:1009F000DC0C18BF03325FEADC0C18BF033202EBD9
:100A0000DC02C2F1200300FA03FC20FA02F001FA32
:100A100003FE40EA0E0021FA02F11444BDE600BFD5
:100A200070B54FF0FF0C4CF4E06C1CEA11541DBF84
:100A30001CEA135594EA0C0F95EA0C0F00F0DEF84F
:100A40002C4481EA030621EA4C5123EA4C5350EA34
:100A5000013518BF52EA033541F4801143F4801385
:100A600038D0A0FB02CE4FF00005E1FB02E506F016
:100A70000042E0FB03E54FF00006E1FB03569CF06B
:100A8000000F18BF4EF0010EA4F1FF04B6F5007F71
:100A900064F5407404D25FEA4E0E6D4146EB0606E3
:100AA00042EAC62141EA55514FEAC52040EA5E506C
:100AB0004FEACE2EB4F1FD0C88BFBCF5E06F1ED816
:100AC000BEF1004F08BF5FEA500E50F1000041EB4D
:100AD000045170BD06F0004646EA010140EA0200FA
:100AE00081EA0301B4EB5C04C2BFD4EB0C0541EA1C
:100AF000045170BD41F480114FF0000E013C00F331
:100B0000AB8014F1360FDEBF002001F0004170BD54
:100B1000C4F10004203C35DA0C341BDC04F114046D
:100B2000C4F1200500FA05F320FA04F001FA05F2F9
:100B300040EA020001F0004221F0004110EBD370C6
:100B400021FA04F642EB06015EEA430E08BF20EAF2
:100B5000D37070BDC4F10C04C4F1200500FA04F395
:100B600020FA05F001FA04F240EA020001F0004127
:100B700010EBD37041F100015EEA430E08BF20EA9A
:100B8000D37070BDC4F1200500FA05F24EEA020EE2
:100B900020FA04F301FA05F243EA020321FA04F011
:100BA00001F0004121FA04F220EA020000EBD370C8
:100BB0005EEA430E08BF20EAD37070BD94F0000FC8
:100BC0000FD101F00046400041EB010111F4801FFC
:100BD00008BF013CF7D041EA060195F0000F18BFAD
:100BE000704703F00046520043EB030313F4801FE9
:100BF00008BF013DF7D043EA0603704794EA0C0FA3
:100C00000CEA135518BF95EA0C0F0CD050EA4106B8
:100C100018BF52EA4306D1D181EA030101F0004135
:100C20004FF0000070BD50EA410606BF104619465D
:100C300052EA430619D094EA0C0F02D150EA013669
:100C400013D195EA0C0F05D152EA03361CBF1046AA
:100C500019460AD181EA030101F0004141F0FE4149
:100C600041F470014FF0000070BD41F0FE4141F4CD
:100C7000780170BD70B54FF0FF0C4CF4E06C1CEACD
:100C800011541DBF1CEA135594EA0C0F95EA0C0F82
:100C900000F0A7F8A4EB050481EA030E52EA03353D
:100CA0004FEA013100F088804FEA03334FF080555E
:100CB00045EA131343EA12634FEA022245EA11158B
:100CC00045EA10654FEA00260EF000419D4208BF3C
:100CD000964244F1FD0404F5407402D25B084FEAE9
:100CE0003202B61A65EB03055B084FEA32024FF495
:100CF00080104FF4002CB6EB020E75EB030E22BFF2
:100D0000B61A754640EA0C005B084FEA3202B6EBB1
:100D1000020E75EB030E22BFB61A754640EA5C0060
:100D20005B084FEA3202B6EB020E75EB030E22BFF0
:100D3000B61A754640EA9C005B084FEA3202B6EBF1
:100D4000020E75EB030E22BFB61A754640EADC00B0
:100D500055EA060E18D04FEA051545EA16754FEA12
:100D600006164FEAC30343EA52734FEAC2025FEA30
:100D70001C1CC0D111F4801F0BD141EA00014FF0BF
:100D800000004FF0004CB6E711F4801F04BF014390
:100D90000020B4F1FD0C88BFBCF5E06F3FF6AFAEAC
:100DA000B5EB030C04BFB6EB020C5FEA500C50F13C
:100DB000000041EB045170BD0EF0004E4EEA1131BF
:100DC00014EB5C04C2BFD4EB0C0541EA045170BDC6
:100DD00041F480114FF0000E013C90E645EA060E0A
:100DE0008DE60CEA135594EA0C0F08BF95EA0C0F38
:100DF0003FF43BAF94EA0C0F0AD150EA01347FF480
:100E000034AF95EA0C0F7FF425AF104619462CE756
:100E100095EA0C0F06D152EA03353FF4FDAE1046B9
:100E2000194622E750EA410618BF52EA43067FF40A
:100E3000C5AE50EA41047FF40DAF52EA43057FF49A
:100E4000EBAE12E74FF0FF3C06E000BF4FF0010CA5
:100E500002E000BF4FF0010C4DF804CD4FEA410C09
:100E60007FEA6C5C4FEA430C18BF7FEA6C5C1BD0D6
:100E700001B050EA410C0CBF52EA430C91EA030F57
:100E800002BF90EA020F0020704710F1000F91EAB4
:100E9000030F58BF994208BF90422CBFD8176FEA82
:100EA000E37040F0010070474FEA410C7FEA6C5C50
:100EB00002D150EA013C07D14FEA430C7FEA6C5C57
:100EC000D6D152EA033CD3D05DF8040B704700BF83
:100ED0008446104662468C461946634600E000BFD1
:100EE00001B5FFF7B7FF002848BF10F1000F01BDA3
:100EF0004DF808EDFFF7F4FF0CBF012000205DF86E
:100F000008FB00BF4DF808EDFFF7EAFF34BF0120F2
:100F100000205DF808FB00BF4DF808EDFFF7E0FF8B
:100F200094BF012000205DF808FB00BF4DF808EDDC
:100F3000FFF7CEFF94BF012000205DF808FB00BF43
:100F40004DF808EDFFF7C4FF34BF012000205DF825
:100F500008FB00BF4FEA410C7FEA6C5C02D150EA0B
:100F6000013C0AD14FEA430C7FEA6C5C02D152EAA1
:100F7000033C02D14FF0000070474FF00100704772
:100F80004FEA410212F5001215D211D56FF47873B1
:100F9000B3EB625212D94FEAC12343F0004343EA54
:100FA000505311F0004F23FA02F018BF404270472F
:100FB0004FF00000704750EA013005D111F00040B9
:100FC00008BF6FF0004070474FF00000704700BF4F
:100FD0004A0011D212F5001211D20DD56FF47873B8
:100FE000B3EB62520ED44FEAC12343F0004343EA0D
:100FF000505323FA02F070474FF00000704750EA58
:10100000013002D14FF0FF3070474FF000007047C1
:101010004FEA4102B2F1E04324BFB3F5001CDCF11A
:10102000FE5C0DD901F0004C4FEAC0024CEA507052
:10103000B2F1004F40EB830008BF20F00100704781
:1010400011F0804F21D113F13872BCBF01F0004084
:10105000704741F480114FEA5252C2F11802C2F1B6
:10106000200C10FA0CF320FA02F018BF40F0010037
:101070004FEAC1234FEAD32303FA0CFC40EA0C00E9
:1010800023FA02F34FEA4303CCE77FEA625307D126
:1010900050EA01331EBF4FF0FE4040F4400070475D
:1010A00001F0004040F0FE4040F40000704700BFF7
:1010B00053B94AB9002908BF00281CBF4FF0FF31BF
:1010C0004FF0FF3001F0C0B8ADF1080C6DE904CE6F
:1010D00000F006F8DDF804E0DDE9022304B0704713
:1010E0002DE9F047089D04468C46002B40F0838094
:1010F0008A42174647D9B2FA82F242B1C2F12000C1
:1011000024FA00F09140974040EA010C94404FEAE5
:101110001748230CBCFBF8F61FFA87FE08FB16C124
:1011200043EA014306FB0EF1994209D9FB1806F187
:10113000FF3080F01981994240F21681023E3B4413
:101140005B1AA4B2B3FBF8F008FB103344EA034483
:1011500000FB0EFEA64509D93C1900F1FF3380F0D3
:101160000581A64540F2028102383C4440EA06402F
:10117000A4EB0E0400261DB1D4400023C5E90043B2
:101180003146BDE8F08702B9FFDEB2FA82F2002AEA
:1011900050D1CB1B4FEA174E1FFA87F80126B3FB3D
:1011A000FEFC210C0EFB1C3341EA034108FB0CF34F
:1011B0008B4207D979180CF1FF3002D28B4200F232
:1011C000E9808446C91AA3B2B1FBFEF00EFB1011F0
:1011D00043EA014408FB00F8A04507D93C1900F197
:1011E000FF3302D2A04500F2D9801846A4EB0804D0
:1011F00040EA0C40BFE78B4209D9002D00F0B180D6
:101200000026C5E9000130463146BDE8F087B3FA53
:1012100083F6002E4AD18B4202D3824200F2B8807C
:10122000841A61EB030101208C46002DA8D0C5E98A
:10123000004CA5E7C2F1200320FA03F6974001FA1B
:1012400002F04FEA174ED9403043030CB1FBFEF6D3
:101250001FFA87F80EFB161143EA014306FB08F15B
:10126000994204FA02F409D9FB1806F1FF3C80F018
:101270008D80994240F28A80023E3B445B1A81B2E3
:10128000B3FBFEF00EFB103341EA034100FB08F311
:101290008B4207D9791800F1FF3C73D28B4271D988
:1012A00002383944CB1A40EA064678E7C6F1200CEA
:1012B00003FA06F422FA0CF31C4320FA0CF701FAA5
:1012C00006F34FEA144E21FA0CF11F433B0CB1FB1D
:1012D000FEF91FFA84F80EFB191143EA014109FBDC
:1012E00008FA8A4502FA06F200FA06F308D96118EC
:1012F00009F1FF3048D28A4546D9A9F102092144B3
:10130000A1EB0A01BFB2B1FBFEF00EFB101147EAE0
:10131000014700FB08F8B84507D9E71900F1FF318C
:101320002ED2B8452CD90238274440EA0940A7EB11
:101330000807A0FB02894F45C64649461AD317D075
:101340005DB1B3EB0E0267EB010707FA0CFCF2404C
:101350004CEA0202F740C5E9002700263146BDE805
:10136000F0872E4628460BE70646E9E61846FDE6D6
:101370004345E5D2B8EB020E69EB04010138DFE723
:101380000846D2E760468DE78146B9E7664675E7CD
:1013900030464AE7ACF1020C394413E702383C44CA
:1013A00024E700BF03685A004CBF43F0004323F01A
:1013B00000431844704700BF2DE9F84329B34F1E7E
:1013C000044615463E464FF0000808EB060101EBC7
:1013D000D171491004EBC1094846FFF7E3FF03460A
:1013E000C80008308F42204409D0AB4209D8FFF72B
:1013F000D9FF0138A8420AD201F10108E5E7AB4262
:1014000005D9884501D04E1EDFE74FF00009484658
:10141000BDE8F883012807D0022807D0044B002834
:101420000CBF1846002070470248704702487047BA
:10143000D91A0000DD1A0000E11A000030B5234B74
:1014400083B004468D1E3BB301A92846AFF300804C
:10145000E8B101992A46FFF7AFFF0146B8B1FFF79F
:10146000A1FF4B68A064012B2BD0002B01F10400DD
:1014700023DBFFF797FF0023C4E913030368002B66
:1014800010DBFFF78FFF2061002003B030BD002389
:101490000920236103B030BD0D490E48091AC91057
:1014A0000191D7E7C3F30360FFF7B4FF0028206181
:1014B00014BF0020092003B030BD0123C4E9130389
:1014C000DCE7002323610520DFE700BF0000000008
:1014D00010270100602301000368DA0710B50446F5
:1014E00006D49B0700F1480009D500F04BFC2368A7
:1014F000590709D51A070ED5DB0613D510BD00F024
:1015000039FC23685907F5D404F1D00000F042FCFF
:1015100023681A07F0D404F5A87000F043FC236890
:10152000DB06EBD404F5E870BDE8104000F07EBCAB
:101530000346006800B11844704700BF0920704797
:10154000704700BF70B504460E46316C2046FFF769
:1015500075FF054688B9336C6361324623692146BD
:10156000012098470828F0D0072806D12846316C7A
:10157000FFF7E6FF301D00F0F1FB0CF0C7FC00BFE9
:101580002DE9F0470D1D064614460FCDADF5727DD1
:101590000DF10C0CACE80F000FCDACE80F000FCD37
:1015A000ACE80F0095E80F0002ADF768D6F8188098
:1015B0008CE80F0000232B6021E02B6C73614FF44B
:1015C000F07229467AA800F041FE33697AAA3146C2
:1015D00050469847889BCDE9005821466B64814668
:1015E000334632460120B8470446E8B94FF4F0725A
:1015F0007AA9284600F02AFEB9F1080F1BD1296C00
:101600003046FFF71BFF09345FFA84FA8146002851
:10161000D3D0AB6B4AF01001CDE9005832466B6471
:1016200001203346B84708B14FF0090948460DF587
:10163000727DBDE8F087B9F1070FF5D12046296C1E
:10164000FFF77EFF03A800F089FB00BF406C7047E6
:10165000F0B5CB6B0B640E1D0F4605460FCEF9B0EF
:1016600001AC0FC40FCE0FC40FCE0FC496E80F000D
:101670004FF0FF3684E80F00009606E02B696A46BB
:10168000294698470828044608D110992846FFF7AC
:10169000D5FE0028F2D0092079B0F0BD6846FFF7EA
:1016A0001BFF062CF7D139462846FFF74BFF00BF3A
:1016B00030B4DD6BC160826119461D64002230BC0C
:1016C0005EE700BF70B5C66843690B64AEB90369D5
:1016D0000A4604460D46014602209847072805D0D1
:1016E00008280FD129462046FFF72CFF3046296CE9
:1016F000FFF726FF281D00F031FB0122FFF740FF16
:101700000CF004FC0CF002FCC2681AB1CA6B0A644B
:10171000002235E79CE700BF704700BF83680146A1
:101720000BB1012018477047012912D009D873B9AD
:101730000F2A0CD800EB820218465368009A1360F7
:1017400070470339012994BF01200220704702200D
:1017500070470846704700BF10B584B0002303AC43
:101760000A4600941946FFF7DFFF039804B010BD46
:10177000012912D009D873B90F2A0CD800EB8200C6
:10178000009A12684260184670470339012994BFD5
:10179000012002207047022070470846704700BFB2
:1017A00010B584B0002303AC039200940A46194696
:1017B000FFF7DEFF04B010BDF0B5D36B1364151D49
:1017C0008C4606460FCDADF50F7D17AC0FC40FCD7F
:1017D0000FC40FCD0FC495E80F004FF0FF3784E81A
:1017E0000F006546169710E0FFF7DAFF294616A8A6
:1017F000B047034616AA6946082083B9049B984758
:10180000052804460CD0092809D026996846FFF718
:1018100015FE03466A460C2116A8002BE4D00924C5
:1018200016A8FFF759FE20460DF50F7DF0BD00BF4D
:101830002DE9F04FCC6C89B00D4654F8041B06948A
:10184000174600F003081E46002B79D00B0CDAB2C5
:1018500009048DF81D30022304EB820405918DF8F4
:101860001C302B6DB8F1020F08BFAC6B13F00103F5
:101870000CD0384605A900F073FB18B9082009B050
:10188000BDE8F08F092009B0BDE8F08FD4F800A0C2
:10189000BAF1000FEDD0019300F008030293022E7D
:1018A0004AD0B4F800A0B4F802900434AA6C29F02D
:1018B000010B0F2138469344FFF74EFF834539D87B
:1018C0002AF001025A44824294BF002001204FEACC
:1018D000490303F002030AF0010A43EA0A03012B59
:1018E00049D0022B32D0002BCCD1B8F1000F02D05E
:1018F000002840F0CD800434D4F800A0BAF1000FE5
:10190000CDD105A9384600F02BFB0028BAD1019BA8
:10191000002BB3D00F213846FFF71EFF0E210246E1
:101920003846FFF73DFF38466A4A0F21FFF738FF78
:101930000720A8E70020CAE7D4F804900834B5E7E8
:10194000090203230591ADF81C308AE7236823F0D0
:10195000004BB8F1000F45D128B1029A002A5CD0A3
:10196000BBF1000F74D0002B00DA04340BF1010B33
:1019700004EB8B04C0E7B8F1000F19D1B0B1D4E982
:101980000023991C4FEAD2723FF47CAF05F1580155
:101990000133049100F09080201DFFF7C9FD04ABD6
:1019A00001462846AFF3008000285BD10834A3E746
:1019B0000D213846D5F82090FFF7CEFE8145F5D1B0
:1019C000AB6A9C42F2D12046FFF7ECFC0F210246A5
:1019D0003846FFF7E5FE38462A460021FFF7E0FECD
:1019E000072050E70D213846D5F82090FFF7B4FEC8
:1019F000814501D02368B6E7AB6A9C42FAD1042244
:101A00000021C5E90B12A318C5F828B06B63236841
:101A10008B4259DB01230193A8E705F15803CDF868
:101A20000C8004F1040AB04691461E460DE004966F
:101A3000FFF77EFD04AB014600222846AFF300808D
:101A400009F101090AF1040AE8B9D9455046EED175
:101A500038460D21FFF780FE049B2862C5E9093452
:101A6000062010E781460D213846FFF775FEB9F1D3
:101A7000020F286225D12B46049A43F82C2F6B6263
:101A8000AC620620FFE646462368DDF80C806AE774
:101A90002046FFF787FC04340246AC632846144610
:101AA000AFF3008000283FF4EDAE384622460F2108
:101AB000FFF776FE0720E6E638460D21FFF74CFEDD
:101AC0002862049B6B62DBE70BF1010004EB8000F2
:101AD0007AE700BF000000000023A9E60123A7E683
:101AE0000223A5E62DE9F0430646C3B015461C4681
:101AF000042900F2B980DFE801F09A53B729030006
:101B0000002C40F0B180102A00F2AE800368D806A5
:101B100000F1F38020AF384600F092F9B06B00235B
:101B2000012404FA03F22A42014604D051F8042B9E
:101B300047F8232008460133042BF2D1B06338461E
:101B400000F074F9002043B0BDE8F083032C40F0AE
:101B50008B8094B204EB1243102B4FEA124500F233
:101B6000838003681F0700F1D08020AF384600F063
:101B70003BF907EBC501B56B54B10B46E81A01EB15
:101B8000C401E4001A5843F8042B8B42FAD12544CF
:101B90003846B56300F006F9002043B0BDE8F08395
:101BA000012C4FEA124895B25AD0052C5CD108EBB3
:101BB0000509B9F1200F57D8B8F10F0F77D9A94609
:101BC000002D40F08880B36B6DB320AF4FF000095B
:101BD00007EBC807043F03EBC50553F8041B47F8A0
:101BE000041FAB42F9D1B9F1000F0FD06F46414647
:101BF000102938BF102107EBC101843903EBC90557
:101C000053F8040B41F8040FAB42F9D1012C00F05A
:101C10008480B8F10F0FB56345D9B9F1000F02D038
:101C2000684600F0B7F8002043B0BDE8F083DCB9A7
:101C3000876B2346012094B206F1040C00FA03F2EC
:101C40002242394604D051F8042B4CF823200F4689
:101C50000133102BF2D115F40050E4D1B76304E046
:101C600008EB0503102B03D9022043B0BDE8F08335
:101C7000B8F10F0FF8D83368DA0706D5304623F0ED
:101C8000030340F8483B00F079F820AF384600F0F5
:101C900075F8B36B002D99D11D460435B5633846F0
:101CA00000F068F8BFE720A800F06CF8B5E7B9F1DC
:101CB000100F40D9A9F110093368D90708D523F0CE
:101CC0000103304643F0020340F8483B00F05EF861
:101CD000B9F1000F32D033685A0720D4B8F10F0F92
:101CE00025D96F463846C8F1100500F057F8002D89
:101CF000B36B7FF77CAF20AF6AE723F0100333604C
:101D000006F5E87000F09CF804E723F00803036090
:101D100000F5A87000F068F827E720AFBDE730466F
:101D200023F0040340F8D03B00F038F8D6E720A8B1
:101D300000F02CF8D5E74FF00009BDE7B8F10F0F20
:101D40003FF641AF20AF384600F020F8B36B002DCE
:101D50007FF43CAF384600F015F864E700F1340139
:101D600091E838009C46A6464CF8045D90E8FF0FC9
:101D7000E54600BD90EC210B704700BF80EC210BC5
:101D8000704700BF90EC200B704700BF80EC200B29
:101D9000704700BFD0EC200B704700BFC0EC200B99
:101DA000704700BFF0EC0201F0EC0211F0EC0221F0
:101DB000F0EC0231F0EC0241F0EC0251F0EC026187
:101DC000F0EC0271F0EC0281F0EC0291F0EC02A177
:101DD000F0EC02B1F0EC02C1F0EC02D1F0EC02E167
:101DE000F0EC02F1704700BFE0EC0201E0EC021100
:101DF000E0EC0221E0EC0231E0EC0241E0EC0251C7
:101E0000E0EC0261E0EC0271E0EC0281E0EC0291B6
:101E1000E0EC02A1E0EC02B1E0EC02C1E0EC02D1A6
:101E2000E0EC02E1E0EC02F1704700BFB0FC0181A0
:101E3000B0FC0191B0FC01A1B0FC01B1704700BF42
:101E4000A0FC0181A0FC0191A0FC01A1A0FC01B1BA
:101E5000704700BFEC4600B52DE900502DE9FF1F8B
:101E60004FF000032DE90C0001A9FFF7F1FBDDF8AD
:101E700040E012B0704700BFEC4600B52DE90050BD
:101E80002DE9FF1F4FF000032DE90C0001A9FFF71A
:101E900019FCDDF840E012B0704700BFEC4600B519
:101EA0002DE900502DE9FF1F4FF000032DE90C0034
:101EB00001A9FFF729FCDDF840E012B0704700BF30
:101EC000EC4600B52DE900502DE9FF1F4FF000034F
:101ED0002DE90C0001ABFFF7EBFBDDF840E012B0A1
:101EE000704700BFEC4600B52DE900502DE9FF1FFB
:101EF0004FF000032DE90C0001AAFFF75DFCDDF8AF
:101F000040E012B0704700BF027A7AB9437AA3B1B9
:101F10004268013B10B4437213680321141D01721F
:101F20001A024460026010BC180E70470368013A40
:101F300002721A020260180E7047B020704700BF8C
:101F400000B585B003AA0023009219460C22FFF7C2
:101F5000EBFB039805B05DF804FB00BFF0E700BFA2
:101F60002DE9F043054685B00E464FF00008304697
:101F7000FFF7CAFFB028044600F0B280070620D55C
:101F800000F0F003802B4DD0902B36D0A02B60D0EA
:101F9000B02B74D0C02B00F08B8000F0F803D02B56
:101FA0000BD100F00702013242F400220523012187
:101FB0002846FFF797FD0028D9D0092005B0BDE8D5
:101FC000F0830DF10C09002319468700CDF800902D
:101FD0000D222846FFF7A8FBFFB2039BCDF8009027
:101FE000043760064CBFDF1BFF18002319460D2283
:101FF00028460397FFF7BCFBB9E700F00D030D2B54
:10200000DBD003AF002300F00F02194600972846EB
:10201000FFF78AFB0023009719460D222846FFF799
:10202000A7FBA4E73046FFF76FFF24022043B0F57B
:10203000004FC2D004010023A2B219462846FFF780
:1020400051FD0028B9D114F4004F18BF4FF001081A
:102050008DE7C24302F007034FF47F621A41010784
:1020600002F47F624FF0000348BF42F480421946F9
:102070002846FFF737FD00283FF479AF9DE7B128E8
:1020800033D0B22800F08B80B32839D000F0FC03A5
:10209000B42B92D000F007020132012342F4002257
:1020A00019462846FFF71EFD00283FF460AF84E77D
:1020B000C62842D0C7284CD000F0F803C02B5BD014
:1020C000C82860D0C9287FF478AF3046FFF71CFFDE
:1020D000020300F00F0002F470220130024365E7B2
:1020E000B8F1000F18D0002068E73046FFF70CFF6A
:1020F000024600283FF461AF10F0F003D0D05CE757
:102100003046FFF701FF010300F00F0001F47021DA
:10211000421C01230A43C3E703AC43460E22414657
:1021200000942846FFF700FB0094284643460F2200
:102130004146FFF71DFB404640E73046FFF7E4FE0F
:10214000010300F00F0001F47021421C03230A4335
:10215000A6E73046FFF7D8FE024600283FF42DAF31
:1021600010F0F0037FF429AF04212846FFF7BAFCF2
:1021700000283FF4FCAE20E700F00F0201320323F9
:1021800042F420228CE73046FFF7BEFE00F0F0025A
:1021900000F00F031032013343EA023206E7002356
:1021A0000DF10C090D221946CDF800902846FFF7D5
:1021B000BBFA3046FFF7A8FE02064FF002070CD527
:1021C000039B00F07F00B840034430460393FFF7C1
:1021D0009BFE030607F10707F2D4039BCDF800909E
:1021E00000F07F0403F50172BC400023144419463B
:1021F0000D2228460394FFF7BBFAB8E610B5C26C6F
:1022000084B0536803248DF80C401B0202F10804CB
:102210000846D279019301A902948DF80D20FFF7A9
:102220009FFE04B010BD00BF08B5FFF797FE806C9D
:1022300008BD00BF08B5FFF791FEC06CC37902333B
:1022400000EB830008BD00BF704700BF844641EA31
:10225000000313F003036DD1403A41D351F8043B1E
:1022600040F8043B51F8043B40F8043B51F8043B70
:1022700040F8043B51F8043B40F8043B51F8043B60
:1022800040F8043B51F8043B40F8043B51F8043B50
:1022900040F8043B51F8043B40F8043B51F8043B40
:1022A00040F8043B51F8043B40F8043B51F8043B30
:1022B00040F8043B51F8043B40F8043B51F8043B20
:1022C00040F8043B51F8043B40F8043B51F8043B10
:1022D00040F8043B51F8043B40F8043B403ABDD27F
:1022E000303211D351F8043B40F8043B51F8043B21
:1022F00040F8043B51F8043B40F8043B51F8043BE0
:1023000040F8043B103AEDD20C3205D351F8043BAF
:1023100040F8043B043AF9D2043208D0D2071CBF7B
:1023200011F8013B00F8013B01D30B8803806046A4
:10233000704700BF082A13D38B078DD010F003031A
:102340008AD0C3F10403D21ADB071CBF11F8013B8A
:1023500000F8013B80D331F8023B20F8023B7BE7D9
:10236000043AD9D3013A11F8013B00F8013BF9D204
:102370000B7803704B7843708B788370604670479E
:1023800001F0FF01102A2BDB10F0070F08D010F826
:10239000013B013A8B422DD010F0070F42B3F6D12A
:1023A000F0B441EA012141EA014122F007047FF043
:1023B00000070023F0E80256083C85EA010586EA9A
:1023C000010685FA47F5A3FA87F586FA47F6A5FAD6
:1023D00087F68EB9EED1F0BC01F0FF0102F00702E2
:1023E00032B110F8013B013A83EA010313B1F8D18D
:1023F0000020704701387047002D06BF354603386E
:10240000073815F0010F07D1013015F4807F02BFA6
:10241000013015F4C03F0130F0BC0138704700BFF7
:1024200000000000000000000000000000000000AC
:10243000000000000000000000000000000000009C
:1024400090F800F06DE9024520F007016FF0000CF4
:1024500010F0070491F820F040F049804FF000049C
:102460006FF00700D1E9002391F840F000F1080077
:1024700082FA4CF2A4FA8CF283FA4CF3A2FA8CF3AF
:102480004BBBD1E9022382FA4CF200F10800A4FA16
:102490008CF283FA4CF3A2FA8CF3E3B9D1E904236A
:1024A00082FA4CF200F10800A4FA8CF283FA4CF3A1
:1024B000A2FA8CF37BB9D1E9062301F1200182FA5B
:1024C0004CF200F10800A4FA8CF283FA4CF3A2FA61
:1024D0008CF3002BC6D0002A04BF04301A4612BA6F
:1024E000B2FA82F2FDE8024500EBD2007047D1E972
:1024F000002304F00305C4F100004FEAC50514F001
:10250000040F91F840F00CFA05F562EA05021CBFD1
:1025100063EA050362464FF00004A9E780B590B076
:1025200000AF78600B46FB70FB78002B27D107F1DA
:10253000240300221A605A609A60DA601A615A61B4
:102540002D4A7B6852F833307B62012387F82830AC
:10255000012387F829304FF0FF333B6307F1240351
:1025600018460AF057F8244A7B68DB00134401221E
:102570001A717B68DB00204A1344FB6336E0FB786A
:10258000012B31D107F10C0300221A605A609A60C6
:10259000DA601A615A61184A7B6852F83330FB607E
:1025A00001233B754FF0FF33BB6107F10C03184665
:1025B0000AF0A2F8104A7B68DB00134402221A7169
:1025C0007B68292B0AD97B682C2B07D80A4A7B68A1
:1025D00052F83330012118460AF0CAF87B68DB0054
:1025E000054A1344FB6301E00023FB63FB6B1846C1
:1025F0004037BD4680BD00BF0000002080B586B0DA
:1026000000AF78607B683B613B69002B0BD03B6976
:102610001B79012B07D13B691B6818460AF0B6F8F5
:102620000346FB7501E00023FB753B691B681B0A31
:10263000DBB2FB603B691B68DBB2BB60FB68022B53
:1026400002D1BB68062B05D0FB68002B09D1BB6803
:10265000042B06D1FB7D002B0CBF01230023DBB232
:10266000FB75FB7D18461837BD4680BD80B586B02A
:1026700000AF78600B46FB707B687B617B69002B49
:102680002FD07B691B79022B2BD17B691B681B0A1E
:10269000DBB23B617B691B68DBB2FB603B69012BF2
:1026A00005D1FB68162B08D0FB68152B05D03B69BC
:1026B000042B0FD1FB681A2B0CD17B691A68FB78AD
:1026C000012B14BF01230023DBB2194610460AF088
:1026D0004FF806E07B691B68FA78114618460AF045
:1026E00047F800BF1837BD4680BD80B485B000AF45
:1026F00078607B68FB60FB68002B0ED0FB681B7961
:10270000022B03D1FB6800221A7106E0FB681B79DB
:10271000012B02D1FB6800221A7100BF1437BD469D
:102720005DF8047B7047000080B584B000AFF860AE
:10273000B9601346FB71BB681F2B05D90D4B0E4AC0
:10274000FF210E480BF0EAFBFB68BA6853F8223011
:1027500023F0807323F4E063FA79120202F4E0625A
:1027600043EA0201FB68BA6843F8221000BF103741
:10277000BD4680BD0C0B0100140D0100180B0100BB
:1027800080B483B000AF78600B46FB707B681B6839
:1027900023F01802FB78DB0003F018031A437B6870
:1027A0001A6000BF0C37BD465DF8047B704700001F
:1027B00080B58EB000AF786187ED020B87ED001B0E
:1027C000524A7B695B01134411331B78002B40F0A4
:1027D0008780002387F82830002387F829300023DA
:1027E00087F82A308023FB62484A7B695B011344E7
:1027F0001868464A7B695B01134404331968434AED
:102800007B695B01134410331B781A46FFF78CFF7A
:102810003E4A7B695B01134408331B6807F12802B9
:102820001146184609F01EFD384A7B695B011344C6
:1028300008331B68DBB200220121184609F098FD1D
:10284000324A7B695B011344113304221A702F4A08
:102850007B695B01134403F11801D7E90223C1E945
:10286000002302233B7600237B76284A7B695B01A9
:1028700013441833D3E9002310461946FEF7A8FB8A
:102880000346FB61D7E90001FEF7A2FB03463B626A
:102890000023BB841D4A7B695B01134408331B681A
:1028A0001B4A52F823303B630021386BFFF768FF67
:1028B000164A7B695B01134408331868134A7B6925
:1028C0005B0113440C331B68DAB207F11803194695
:1028D00009F0ACFD7B695B010C4A13447B630FE09C
:1028E0000A4A7B695B01134411331B78042B05D121
:1028F0007B695B01054A13447B6301E000237B6332
:102900007B6B18463837BD4680BD00BF780100207C
:102910004C17010080B483B000AF786000BF0C3763
:10292000BD465DF8047B704780B58AB000AFF860A3
:1029300087ED000BFB687B627B6A002B2CD07B6AE7
:102940005B7C042B28D102233B7400237B747B6ABD
:10295000D3E9062310461946FEF73AFB03467B618E
:10296000D7E90001FEF734FB0346BB610023BB83BC
:102970007B6A9B680A4A52F823303B620021386A1E
:10298000FFF7FEFE7B6A98687B6ADB68DAB207F1C4
:102990001003194609F04AFD00BF2837BD4680BD27
:1029A0004C17010080B485B000AF78607B68FB6095
:1029B000FB68002B06D0FB685B7C042B02D1FB6814
:1029C00000225A7400BF1437BD465DF8047B70477F
:1029D00080B483B000AF786000BF0C37BD465DF8AF
:1029E000047B704780B584B000AFF860B9607A604E
:1029F000BB680F2B06D90A4B0A4A40F2E2210A486B
:102A00000BF08CFAFA68BB685B01134403F5805342
:102A100010337A681A6000BF1037BD4680BD00BF12
:102A2000500B01004C0D01007C0B010080B584B0FF
:102A300000AFF860B9601346FB71BB680F2B06D975
:102A40000D4B0E4A4FF460710D480BF067FABB68EE
:102A50005B0103F580531833FA681344043303F120
:102A6000424303F580135B010433FA7992B21A8072
:102A700000BF1037BD4680BD500B0100680D01003E
:102A80007C0B010090B587B000AFF8607A603B60C6
:102A90000B46FB7200237B61FB681B68032B00F075
:102AA000E481032B05D8012B00F09880022B00F065
:102AB0004781954B00221A60934B1B68934A52F84A
:102AC0002330002B41D1904B1B68914ADB0013440B
:102AD00000229A718C4B1B688D4ADB001344002244
:102AE0001A71894B1B688A4ADB00134400225A7111
:102AF000854B1B68864A4FF4E13142F83310824B14
:102B00001B68184606F04EFB7F4B1B689B01814AF1
:102B100013448149184609F0B1FA7B4B18687A4B87
:102B20001A6813461B019B1A9B007C4A9918764B26
:102B30001B68DB00764A13441A460AF09FFB724B6F
:102B40001B68724A012142F823107B68B3F1FF3FF2
:102B500020D06D4B1A68724913469B0013449B00AA
:102B60000B442E221A60684B1A686D4913469B006D
:102B700013449B000B4408336A4A1A60624B1A687C
:102B8000674913469B0013449B000B440C33664A71
:102B90001A6015E05C4B1A68614913469B001344A8
:102BA0009B000B4404333C221A60574B1A685C4963
:102BB00013469B0013449B000B4410335B4A1A607E
:102BC000514B1B68504A1268594941F823204E4B1B
:102BD0001B689B00564A13447B61DBE14A4B012290
:102BE0001A60494B1B68494A52F82330002B41D1E7
:102BF000454B1B68464ADB00134400229A71424B46
:102C00001B68434ADB00134400221A713E4B1B68C9
:102C10003F4ADB00134400225A713B4B1B683C4A7D
:102C20004FF4E13142F83310374B1B68184606F079
:102C3000B9FA354B1B689B01364A1344364918468E
:102C400009F01CFA304B18682F4B1A6813461B0109
:102C50009B1A9B00314A99182B4B1B68DB002C4AAE
:102C600013441A460AF00AFB274B1B68274A012126
:102C700042F823107B68B3F1FF3F20D0224B1A6843
:102C8000274913469B0013449B000B4400221A6003
:102C90001D4B1A68224913469B0013449B000B44AA
:102CA0000833244A1A60184B1A681D4913469B00C2
:102CB00013449B000B440C331F4A1A6015E0124B5F
:102CC0001A68174913469B0013449B000B440433B6
:102CD00000221A600C4B1A68114913469B001344DA
:102CE0009B000B441033154A1A60074B1B68064AB9
:102CF00012680F4941F82320034B1B689B000C4AC4
:102D000013447B6146E100BFF4140020F814002056
:102D1000141400202C11002078060020AC12002092
:102D20004C14002090100020C0100020F010002053
:102D3000DC140020F0100020F01000202C110020E6
:102D4000AD4B02221A60AC4B1B68AC4A52F82330E0
:102D5000002B41D1A84B1B68A94ADB001344002279
:102D60009A71A54B1B68A64ADB00134400221A7116
:102D7000A14B1B68A24ADB00134400225A719E4BF0
:102D80001B689F4A4FF4E13142F833109A4B1B689D
:102D9000184606F007FA984B1B689B01994A1344A2
:102DA0009949184609F06AF9934B1868924B1A68CA
:102DB00013461B019B1A9B00944A99188E4B1B6863
:102DC000DB008F4A13441A460AF058FA8A4B1B68F4
:102DD0008A4A012142F823107B68B3F1FF3F20D0DB
:102DE000854B1A688A4913469B0013449B000B4489
:102DF00000221A60804B1A68854913469B001344D1
:102E00009B000B440833834A1A607B4B1A68804945
:102E100013469B0013449B000B440C337E4A1A60FC
:102E200015E0754B1A687A4913469B0013449B00C2
:102E30000B44043300221A606F4B1A68744913461E
:102E40009B0013449B000B441033744A1A606A4B76
:102E50001B68694A1268724941F82320664B1B6857
:102E60009B006F4A13447B6194E0634B03221A601A
:102E7000614B1B68614A52F82330002B41D15E4BF5
:102E80001B685F4ADB00134400229A715A4B1B688F
:102E90005B4ADB00134400221A71574B1B68584AE7
:102EA000DB00134400225A71534B1B68544A4FF401
:102EB000E13142F83310504B1B68184606F072F9A6
:102EC0004D4B1B689B014F4A13444F49184609F06C
:102ED000D5F8494B1868484B1A6813461B019B1AD2
:102EE0009B004A4A9918444B1B68DB00444A134430
:102EF0001A460AF0C3F9404B1B68404A012142F8C8
:102F000023107B68B3F1FF3F20D03B4B1A68404948
:102F100013469B0013449B000B4400221A60364B5F
:102F20001A683B4913469B0013449B000B4408332B
:102F30003C4A1A60304B1A68354913469B001344CB
:102F40009B000B440C33384A1A6015E02A4B1A6870
:102F50002F4913469B0013449B000B44043300226B
:102F60001A60254B1A682A4913469B0013449B009C
:102F70000B4410332D4A1A601F4B1B681E4A1268FF
:102F8000274941F823201C4B1B689B00244A13440B
:102F90007B6100BF7B68B3F1FF3F27D0164B1A68F7
:102FA00013461B019B1A9B002833184A1344043311
:102FB000114A12681E49184609F0A2F80E4B18680B
:102FC0000D4B1A68124913469B0013449B000B4497
:102FD00008331968084B1A680D4C13469B001344BC
:102FE0009B0023441B681A4600F0E0F87B691846F2
:102FF0001C37BD4690BD00BFF4140020F81400201B
:10300000141400202C11002078060020AC1200209F
:103010004C140020F0100020F01000202C11002093
:10302000DC140020F0100020F01000202C110020F3
:103030005932000080B483B000AF7860396000235B
:1030400018460C37BD465DF8047B704780B483B0EA
:1030500000AF7860084611461A460346FB700B46DF
:10306000BB7013467B70002318460C37BD465DF8D5
:10307000047B704780B586B000AFF860B9607A60B5
:10308000FB683B613B69002B33D03B691B681F4ADF
:10309000D35C012B2DD13B691B681D4A52F82330AC
:1030A000012B0FD13B691A681A4913469B00134440
:1030B0009B000B4408331B687A681946B868FFF711
:1030C000C5F80EE03B691A68124913469B00134489
:1030D0009B000B440C331B687A681946B868FFF7ED
:1030E000B5F83B691B68094A0021D1540023FB75E0
:1030F00006E07A680021B8680BF052FA2023FB75CD
:10310000FB7D18461837BD4680BD00BF4414002023
:10311000C41400204C14002080B586B000AFF860C5
:10312000B9607A60FB683B613B69002B2AD03B6940
:103130001B68002118460AF0F5F90346082B21D038
:103140003B691A68134913469B0013449B000B44C8
:1031500010331B687A68B9681846FFF777F83B693F
:1031600018683B691A680B4913469B0013449B007F
:103170000B4410331B687A6819460AF0AFF903460E
:10318000FB7501E02023FB75FB7D18461837BD4613
:1031900080BD00BF4C14002080B483B000AF7860C5
:1031A00000BF0C37BD465DF8047B704780B588B022
:1031B00000AFF860B9607A60FB68052B06D9214B37
:1031C000214A40F2891121480AF0A8FE204AFB68F2
:1031D00052F82330FB61FB6993F82C301B09DBB2FA
:1031E0001A461C4B53F82230BB61FB6993F82C3014
:1031F00003F00F037B61FB695B78DBB2002B01D02E
:1032000009231AE0FB6901225A70BB681A467969E2
:10321000B869FFF7E7FB7A687969B86908F06CFE6E
:1032200001227969B869FFF701FC7B69DBB20122F1
:103230001946B86908F04BFD002318462037BD46F3
:1032400080BD00BFB40B0100280D0100D40B0100AC
:10325000987900200C15010080B582B000AF78602D
:103260000B46FB707B68184600F004F800BF083777
:10327000BD4680BD80B586B000AF78607B68052B09
:1032800006D93C4B3C4A40F2AD113C480AF046FEA0
:103290003B4A7B6852F823307B617B6993F82C3082
:1032A0001B09DBB21A46374B53F822303B617B696E
:1032B00093F82C3003F00F03FB600022F9683869A3
:1032C000FFF7B4FBFB68DBB200221946386908F04F
:1032D000FEFC7B69DB78DBB2002B04D07B6910330A
:1032E000184608F03DF97B6900225A70264A7B682F
:1032F000134401221A70254A7B6852F82330002BB0
:103300001AD123497A6813469B0013449B000B444F
:103310000C3319681E487A6813469B0013449B00BF
:1033200003441B681A467868FFF740FF174A7B681A
:10333000012142F8231019E015497A6813469B00D1
:1033400013449B000B440833196811487A681346EC
:103350009B0013449B0003441B681A467868FFF7E0
:1033600025FF0A4A7B68002142F8231000BF183766
:10337000BD4680BDB40B0100800D0100D40B0100DF
:10338000987900200C15010044140020C41400207A
:103390004C14002080B582B000AF786008F0EAFAE3
:1033A000034618460837BD4680BD80B483B000AFE1
:1033B00078607B68023303F1424303F580135B01BD
:1033C0001C3301221A7000BF0C37BD465DF8047B28
:1033D000704780B483B000AF78607B68023303F13C
:1033E000424303F580135B010C3300221A7000BFC7
:1033F0000C37BD465DF8047B704780B483B000AFE6
:1034000078607B68023303F1424303F580135B016C
:103410000C3301221A7000BF0C37BD465DF8047BE7
:10342000704780B483B000AF78600B46FB707B6858
:10343000023303F1424303F580135B0110331A4654
:10344000FB78137000BF0C37BD465DF8047B7047F6
:1034500080B483B000AF78607B681B79DBB218461C
:103460000C37BD465DF8047B704780B483B000AF75
:1034700078600B46FB707B68FA781A7100BF0C37D6
:10348000BD465DF8047B704780B483B000AF7860C0
:103490000B46FB707B68DB78DBB21A46FB7842FA9E
:1034A00003F303F00103002B14BF01230023DBB25D
:1034B00018460C37BD465DF8047B704780B483B076
:1034C00000AF78607B68023303F1424303F5801359
:1034D0005B0114331B78DBB2002B14BF01230023E4
:1034E000DBB218460C37BD465DF8047B704780B4EC
:1034F00083B000AF78600B46FB707B68023303F14A
:10350000424303F580135B011833FA781A7000BF49
:103510000C37BD465DF8047B704780B483B000AFC4
:1035200078607B680222DA7000BF0C37BD465DF818
:10353000047B704780B584B000AFF860B960134673
:10354000FB71BB681F2B05D90B4B0C4AD9210C48CA
:103550000AF0E4FCBB689B00FA68134403F14243A1
:1035600003F580135B0114331A46FB79136000BF27
:103570001037BD4680BD00BF3C0C0100C40D0100EA
:10358000480C010080B584B000AFF860B960134604
:10359000FB71BB681F2B05D90D4B0E4AFF210E484E
:1035A0000AF0BCFCFB68BA6853F8223023F0807341
:1035B00023F4E063FA79120202F4E06243EA0201C2
:1035C000FB68BA6843F8221000BF1037BD4680BDC3
:1035D0003C0C0100B00D0100480C010080B584B026
:1035E00000AF78607B681B680F4A52F82330FB609D
:1035F0007B681B68184600F0EFF97B681B6818466B
:1036000008F02EFAF86809F0DFF8F868FFF7CDFE49
:103610000121F868FFF76BFF0449786800F0FCF8B7
:1036200000BF1037BD4680BDA40D0100A08601007B
:1036300080B584B000AF78607B681B68054A52F89B
:103640002330FB60F86809F005F9002318461037AD
:10365000BD4680BDA40D010080B584B000AF786088
:103660000023BB607B681B680E4A52F82330FB6066
:10367000F868FFF723FF0346002B02D0F86809F033
:10368000F9F80023BB6004E000BF00BFBB68013352
:10369000BB60BB68C72BF7D9002318461037BD465F
:1036A00080BD00BFA40D010080B586B000AF78607A
:1036B0000B46FB70104B3B617B681B680F4A52F84E
:1036C0002330FB6000237B610CE0FB781946F8682F
:1036D000FFF7DAFE0346002B01D0002307E07B69E9
:1036E00001337B617A693B699A42EED30123184624
:1036F0001837BD4680BD00BFA0860100A40D0100A3
:1037000080B584B000AF78607B681B68104A52F8BF
:103710002330FB6001217868FFF7C6FF0346002BCA
:1037200001D0022310E0F868FFF7F7FE0721786860
:10373000FFF7BAFF0346002B01D0022304E000216B
:10374000F868FFF7A1FE034618461037BD4680BD56
:10375000A40D010080B584B000AF78607B681B6861
:103760000A4A52F82330FB6001217868FFF79CFF7A
:103770000346002B01D0012303E0F868FFF7CDFEDC
:10378000002318461037BD4680BD00BFA40D0100C0
:1037900080B584B000AF786039607B681B68094AE7
:1037A00052F82330FB603B68DBB21946F868FFF73C
:1037B0005CFE7868FFF7A4FF034618461037BD4645
:1037C00080BD00BFA40D010080B586B000AFF860D9
:1037D000B9607A60FB681B680E4A52F823307B613F
:1037E0007B68002B03D07869FFF707FE02E0786959
:1037F000FFF7EFFD7869FFF72BFE03461A46BB681B
:103800001A70F868FFF7A6FF034618461837BD463A
:1038100080BD00BFA40D010080B584B000AF78600A
:1038200039607B681B680E4A52F82330FB607B6866
:103830001B681846FFF7AEFD0346BB603B68094AAC
:1038400082FB03129211DB17D31A1A460023B968C0
:10385000F86808F0C7FF00BF1037BD4680BD00BF45
:10386000A40D0100D34D621090B589B000AFF8608F
:10387000B9607A603B60F868FFF7DAFE0346002B18
:1038800005D0F868FFF7E8FE6FF0010355E0BB686C
:1038900043F001031946F868FFF77AFF0346002B4F
:1038A00005D0F868FFF7D8FE4FF0FF3345E0FB681E
:1038B0001B68244A52F82330BB610021B869FFF726
:1038C000B0FD0023FB6124E0FB69002B02D107F16E
:1038D000120303E0FB69013B7A6813447B613B6898
:1038E000013BFA699A420CBF01230023DBB2FB744F
:1038F000FB7C1A467969F868FFF766FF0346002BE0
:1039000004D0F868FFF7A8FEFB6916E0FB690133F5
:10391000FB61FA693B689A42D6DB3B6B002B02D015
:10392000F868FFF799FEFB69013B7A68D418B8691B
:10393000FFF78EFD034623703B6818462437BD46CB
:1039400090BD00BFA40D010080B586B000AFF86047
:10395000B9607A603B60F868FFF76AFE0346002BA7
:1039600005D0F868FFF778FE6FF0010330E0BB6820
:1039700003F0FE031946F868FFF70AFF0346002B21
:1039800005D0F868FFF768FE4FF0FF3320E0002312
:103990007B6112E07B697A6813441B781946F868EA
:1039A000FFF7F6FE0346002B04D0F868FFF754FE3D
:1039B0007B690DE07B6901337B617A693B689A42E0
:1039C000E8DB3B6A002B02D0F868FFF745FE3B6856
:1039D00018461837BD4680BD80B582B000AF78600C
:1039E0007B68002B03D07B68012B15D029E00522D2
:1039F00018211648FFF7C6FD012218211348FFF7CA
:103A000099FD052219211148FFF7BCFD012219215A
:103A10000E48FFF78FFD14E002220A210C48FFF741
:103A2000B1FD01220A210A48FFF784FD02220B2181
:103A30000748FFF7A7FD01220B210548FFF77AFD94
:103A400000BF00BF0837BD4680BD00BF00D00440A6
:103A500000B0044080B584B000AF78600B46FB70C6
:103A60007B68012B11D80C497B687A6841F82320C8
:103A70007B689B00084A13441846FFF7AFFD7B683C
:103A80009B00054A1344FB6001E00023FB60FB68D8
:103A900018461037BD4680BD1015002080B584B093
:103AA00000AF786039607B68002B07D03B6819460F
:103AB0007868FFF7B1FE0023FB7301E00823FB7376
:103AC000FB7B18461037BD4680BD80B588B002AF7D
:103AD000F8607A603B600B467B8100237B6197F83E
:103AE0002030002B0CBF01230023DBB23B61FB68BD
:103AF000002B19D07B8959003A683B690093134623
:103B00007A68F868FFF7B0FE03467B617B6913F1C2
:103B1000020F01D1012308E07B69B3F1FF3F01D11E
:103B2000042302E0002300E0082318461837BD46AE
:103B300080BD80B588B002AFF8607A603B600B460C
:103B40007B8100237B6197F82030002B0CBF012381
:103B50000023DBB23B61FB68002B19D07B89590045
:103B60003A683B69009313467A68F868FFF7ECFE01
:103B700003467B617B6913F1020F01D1012308E049
:103B80007B69B3F1FF3F01D1042302E0002300E091
:103B9000082318461837BD4680BD80B483B000AFF7
:103BA000786000BF0C37BD465DF8047B70470000AD
:103BB00080B586B000AF786026497A6813465B000E
:103BC00013449B000B4409331B78002B27D107F1CA
:103BD0000803184607F094FF0323FB721D497A6817
:103BE00013465B0013449B000B441B6807F108025B
:103BF0001146184607F096FF16497A6813465B008F
:103C000013449B000B44093303221A707A6813464D
:103C10005B0013449B000F4A13447B6115E00D4980
:103C20007A6813465B0013449B000B4409331B78EE
:103C3000032B08D17A6813465B0013449B00054AA6
:103C400013447B6101E000237B617B6918461837D0
:103C5000BD4680BD3804002080B485B000AFF86058
:103C60000B467A60FB7200BF1437BD465DF8047BDB
:103C7000704700000000000080B58AB000AFF86017
:103C8000B9601346FB71FB68FB61FB69002B3AD0FE
:103C9000FB691B7A3B750023BB7500237B75FB69B1
:103CA0001B680121184607F085FFFB691868FB694E
:103CB0005B6807F11402194607F09CFFFB691A685C
:103CC000FB695B681946104607F0B0FFFB691A688C
:103CD000FB695B681946104607F0CCFF03467B83FF
:103CE0007B8B07EE903AF8EE677A17EE900AFCF7B6
:103CF0003FFE0DA3D3E90023FCF792FE02460B46DC
:103D0000C7E9082305E04FF000024FF00003C7E9C0
:103D10000823B968D7E90823C1E9002300BF283781
:103D2000BD4680BDAFF30080100010001000F03ED3
:103D300080B483B000AF786000BF0C37BD465DF83B
:103D4000047B704780B483B000AF786000BF0C374D
:103D5000BD465DF8047B704780B483B000AF7860E7
:103D600000BF0C37BD465DF8047B704780B588B056
:103D700000AF78617B691B68FB61FB690133BB6144
:103D80000FE0FB69DB000E4A1A443B461146184619
:103D900005F040FE0B4B1B68002B08D1B86903F0FF
:103DA0000DFD094B1B78DBB2002BEAD100E000BF10
:103DB000002005F07BFD002318462037BD4680BD5E
:103DC0002C150020501500207A06002080B586B002
:103DD00000AF78611B4B1B681B68002B0CBF0123D5
:103DE0000023DBB21A46184B1A701AE03B461749FB
:103DF000184605F00FFE134B1B685B79002B02D1B0
:103E0000134805F0F4FD002003F0D8FC0D4B1B68AF
:103E10001B68002B14BF01230023DBB21A460D4B95
:103E20001A70094B1B78DBB2002BDFD1786900F0E8
:103E300013F8002005F03AFD002318461837BD4658
:103E400080BD00BFE00D01007A060020241500208F
:103E50002C1500201815002080B586B002AF7860C0
:103E60001E4B01221A600023FB6010E0FB68DB00A0
:103E70001B4A1344184605F0BAFDFB68DB00184ADC
:103E80001344184605F0E0FDFB680133FB60FB6856
:103E9000002BEBDD0023FB6010E01249FA681346AB
:103EA0009B0013449B000B440F4A01921A69009235
:103EB0000FCB05F00CFDFB680133FB60FB68002BAA
:103EC000EBDD0A4B00221A7003F008FF084805F0EA
:103ED0008EFD002318461037BD4680BD50150020CA
:103EE0002C150020541500204C1500207A060020C7
:103EF0001C15002080B586B000AF786139610E4B8B
:103F000029221A6004F01EFF05F0E6F80B4B1B682F
:103F100000221A6003F068FC01209FED090A05F0F9
:103F2000D9FB3B460749184605F074FD00231846A7
:103F30001837BD4680BD00BF68150020E00D0100A8
:103F40006F12833A1C15002080B400AF084B5A79D9
:103F50000132D2B25A71064B5B79092B02D9044B5C
:103F600000225A7100BFBD465DF8047B704700BF58
:103F7000E838002080B485B000AF6D4B03F589535D
:103F80001C331B881A466A4B03F5895316331B886A
:103F9000D31ABB60BB68FB60654B03F589531C33C8
:103FA0001B881A46BB68934203D90023FB60002399
:103FB000BB605F4B03F58A5304331B88002B12D17F
:103FC000FB689BB2002B06D15A4B03F58E530C3382
:103FD00000221A8049E0574B03F58E530C334FF6FD
:103FE000FF721A8041E0FB689AB2514B03F58A5385
:103FF00004331B88B2FBF3F39AB24E4B03F58E5396
:104000000C331A80FB689AB24A4B03F58E530C337B
:104010001988474B03F58A5304331B8811FB03F3BC
:104020009BB2D31AFB80FB88002B1ED0FA88404B32
:1040300003F58A5304331B885B089BB219463C4B3B
:1040400003F58A5304331B8803F001030B449A429F
:104050000BDB384B03F58E530C331B8801339AB2BC
:10406000344B03F58E530C331A80314B03F58A53CE
:1040700002331B88002B12D1BB689BB2002B06D1E8
:104080002C4B03F58E53083300221A8049E0294B4C
:1040900003F58E5308334FF6FF721A8041E0BB6878
:1040A0009AB2234B03F58A5302331B88B2FBF3F316
:1040B0009AB2204B03F58E5308331A80BB689AB22C
:1040C0001C4B03F58E5308331988194B03F58A539B
:1040D00002331B8811FB03F39BB2D31AFB80FB88CE
:1040E000002B1ED0FA88124B03F58A5302331B882B
:1040F0005B089BB219460E4B03F58A5302331B88AB
:1041000003F001030B449A420BDB0A4B03F58E5379
:1041100008331B8801339AB2064B03F58E530833DC
:104120001A8000BF1437BD465DF8047B704700BF9E
:10413000701500200827002080B58AB000AF786095
:10414000C14B03F58E5314331B78012B03D0022B84
:1041500000F0148182E1BD4B03F58C531033012232
:104160001A707B681B78002B40F08B80B74B03F5EF
:10417000895314331B881846FCF7D8FB02460B46BC
:10418000AFA1D1E90001FCF775FD02460B4643ECF7
:10419000172BB0EE470AF0EE670A05F05FFCB0EEB1
:1041A000407AF0EE607A87ED047B4FF00002A84B76
:1041B000D7E90401FCF7A6FE0346002B06D0D7E999
:1041C0000401FCF705FF0346FB8302E04FF6FF7393
:1041D000FB839E4B03F588530433D3ED007AB0EE96
:1041E000670A05F0B5FCF0EE407AC7ED037AD7ED2B
:1041F000037A9FED987AF4EEC77AF1EE10FA11D5B2
:10420000D7ED037AF5EEC07AF1EE10FA07DBD7EDC1
:10421000037AFCEEE77A17EE903ABB8305E00023C1
:10422000BB8302E04FF6FF73BB83FA8BBB8BD31AC1
:104230003B62FB8B3A6A9A4201D900233B62834B73
:1042400003F589531A331B881A463B6A9B1A7B6213
:104250007A6A3B6A9A4201D900237B627A4B03F562
:104260008E5304331B681A4613469B0013445B00AD
:104270001A467B6A934294BF01230023DBB2FB768C
:1042800001E00023FB76FB7E002B2DD06E4B03F567
:104290008E53143302221A706B4B03F58E53043382
:1042A00000221A60694B03F58C530A3300221A70FE
:1042B000664B03F58C530E3301221A70634B03F5E2
:1042C0008C530B3301221A70604B03F58C530F3360
:1042D00000221A705D4B03F5845318334FF0000031
:1042E0005D49C3E900012DE17B681B78002B00F0DC
:1042F0002981554B03F58E53143303221A70524B08
:1043000003F58E53043300221A60504B03F58C538F
:10431000103300221A704D4B03F58C530B330022DF
:104320001A704A4B03F58C530F3301221A70474B16
:1043300003F587531833D3ED007AB3EE047A67EEB2
:10434000877A424B03F588531833C3ED007A3F4B0D
:1043500003F58C530A3300221A703C4B03F58C533F
:104360000E3301221A70394B03F5845310334FF08A
:1043700000004FF00001C3E90001E3E0324B03F518
:104380008E5304331B681A4613469B0013445B008C
:1043900007EE903AB8EE677A2C4B03F58853043356
:1043A000D3ED007AB4EEE77AF1EE10FA00DACCE061
:1043B000254B03F58E53143303221A70224B03F559
:1043C0008E53043300221A60204B03F58C531033B4
:1043D00000221A701D4B03F58C530B3300221A7008
:1043E0001A4B03F58C530F3301221A70174B03F548
:1043F00087531833D3ED007AB3EE047A67EE877AE9
:10440000124B03F588531833C3ED007A0F4B03F5B5
:104410008C530A3300221A700C4B03F58C530E3365
:1044200001221A70094B03F5845310334FF000003A
:104430004FF00001C3E9000187E000BFAFF3008047
:1044400000000000004CED400827002070150020FF
:104450000000F040000080470000F03F3D4B03F5B6
:104460008C53103300221A703B4B03F58E530433E8
:104470001B681A4613469B0013445B001A46354BD3
:1044800003F589531A331B889A425DD3324B03F5E7
:104490008E53143301221A702F4B03F58E530433BD
:1044A00000221A602B4B03F58C53103301221A7033
:1044B000284B03F58C530B3300221A70254B03F560
:1044C0008753183393ED007AF1EE046AC7EE267A2B
:1044D0009FED227A67EE877A1E4B03F588531033DF
:1044E000C3ED007A1B4B03F58C530A3301221A707B
:1044F000184B03F58C530E3301221A70154B03F53C
:104500008C530F3301221A70124B03F58853083372
:1045100093ED007AF1EE046AC7EE267A9FED0F7AEA
:1045200067EE877A0B4B03F588531833C3ED007A97
:10453000084B03F5845310334FF000000849C3E9DA
:10454000000101E000BF00E000BF00BF2837BD460A
:1045500080BD00BF70150020082700200000C84261
:104560000000F03F0000000080B58AB000AF786026
:104570008D4B03F58C53103301221A707B681B7826
:10458000002B40F08B80884B03F5895316331B8832
:104590001846FCF7CBF902460B4681A1D1E9000190
:1045A000FCF768FB02460B4643EC172BB0EE470ABC
:1045B000F0EE670A05F052FAB0EE407AF0EE607A5B
:1045C00087ED047B4FF00002784BD7E90401FCF73C
:1045D00099FC0346002B06D0D7E90401FCF7F8FC50
:1045E0000346FB8302E04FF6FF73FB836E4B03F53C
:1045F00088530433D3ED007AB0EE670A05F0A8FAC9
:10460000F0EE407AC7ED037AD7ED037A9FED687A32
:10461000F4EEC77AF1EE10FA11D5D7ED037AF5EE84
:10462000C07AF1EE10FA07DBD7ED037AFCEEE77AF9
:1046300017EE903ABB8305E00023BB8302E04FF600
:10464000FF73BB83FA8BBB8BD31A3B62FB8B3A6A3B
:104650009A4201D900233B62534B03F589531A3325
:104660001B881A463B6A9B1A7B627A6A3B6A9A42AB
:1046700001D900237B624F4B03F58E5304331B6833
:104680001A4613469B0013445B001A467B6A93420A
:1046900094BF01230023DBB2FB7601E00023FB760D
:1046A000FB7E002B2DD0434B03F58E531333032297
:1046B0001A70404B03F58E53043300221A603A4BB4
:1046C00003F58C530A3300221A70374B03F58C53D1
:1046D0000E3301221A70344B03F58C530B33012235
:1046E0001A70314B03F58C530F3300221A702E4B86
:1046F00003F5845318334FF000002F49C3E900013C
:1047000047E07B681B78002B43D02A4B03F58E5380
:10471000133304221A70274B03F58E5304330022FF
:104720001A60214B03F58C53103300221A701E4B74
:1047300003F58C530B3300221A701B4B03F58C537B
:104740000F3301221A70184B03F587531833D3ED3A
:10475000007AB3EE047A67EE877A134B03F5885339
:104760001833C3ED007A104B03F58C530A33002243
:104770001A700D4B03F58C530E3301221A700A4B3D
:1047800003F5845310334FF000004FF00001C3E9EC
:10479000000100BF2837BD4680BD00BFAFF30080D9
:1047A00000000000004CED40701500200000F040BB
:1047B00000008047082700200000F03F80B400AFD1
:1047C000CD4B03F58C53103300221A70CA4B03F5FE
:1047D0008A531B88013B072B00F2988201A252F8F2
:1047E00023F000BFBD48000041490000BB49000064
:1047F00005480000714A0000094B00008F4B000083
:10480000494C0000BD4B03F58E53133302221A703E
:10481000BA4B03F58E53043300221A60B64B03F5EE
:104820008C53103301221A70B34B03F58C530B33A6
:1048300000221A70B04B03F58753183393ED007ABA
:10484000F1EE046AC7EE267A9FEDAD7A67EE877ABD
:10485000A94B03F588531033C3ED007AA64B03F53B
:104860008C530A3301221A70A34B03F58C530E3379
:1048700001221A70A04B03F58C530F3301221A70DA
:104880009D4B03F58853083393ED007AF1EE046AEB
:10489000C7EE267A9FED9A7A67EE877A964B03F5F4
:1048A00088531833C3ED007A934B03F584531033C8
:1048B0004FF000009349C3E9000127E28F4B03F555
:1048C0008E53133306221A708C4B03F58E53043328
:1048D00000221A60884B03F58C530B3300221A70A8
:1048E000854B03F58C530F3301221A70824B03F56D
:1048F0008C530A3301221A707F4B03F58C530E330D
:1049000001221A707C4B03F58753183393ED007A1C
:10491000F1EE046AC7EE267A9FED797A67EE877A20
:10492000754B03F588531033C3ED007A724B03F5D2
:10493000845310334FF000007249C3E90001E5E1F0
:104940006E4B03F58E5313330A221A706B4B03F52B
:104950008E53043300221A60674B03F58C530D33DA
:1049600001221A70644B03F58C530C3300221A7029
:10497000614B03F58C530A3301221A705E4B03F529
:104980008C530E3301221A705B4B03F58853D3ED21
:10499000007AB3EE047A67EE877A574B03F58853B3
:1049A0001033C3ED007A544B03F5845318334FF0A2
:1049B00000005449C3E90001A8E1504B03F58E53B0
:1049C00013330D221A704D4B03F58E53043300221E
:1049D0001A60494B03F5885393ED007AF1EE046AAF
:1049E000C7EE267A9FED467A67EE877A424B03F54B
:1049F00088531033C3ED007A3F4B03F58C530E33CD
:104A000001221A703C4B03F58C530D3301221A70AE
:104A1000394B03F58C530C3300221A70364B03F5D7
:104A20008C530A3301221A70334B03F588530C332D
:104A300093ED007AF1EE046AC7EE267A9FED307AA4
:104A400067EE877A2C4B03F588531433C3ED007A55
:104A5000294B03F58C53103301221A70264B03F5B2
:104A6000845318334FF000002649C3E900014DE19B
:104A7000224B03F58E53133305221A701F4B03F597
:104A80008E53153301221A701C4B03F58E530433D9
:104A900000221A60184B03F58C530B3300221A7056
:104AA000154B03F58C530F3301221A70124B03F58B
:104AB0008C530A3301221A700F4B03F58C530E33BB
:104AC00001221A700C4B03F587531833D3ED007A8B
:104AD000B3EE047A67EE877A074B03F588531033F9
:104AE000C3ED007A044B03F5845310334FF00000FC
:104AF0000449C3E9000109E17015002008270020DE
:104B00000000C8420000F03F834B03F58E5313337F
:104B100009221A70804B03F58E53173301221A7045
:104B20007D4B03F58E53043300221A607B4B03F553
:104B30008C530D3301221A70784B03F58C530C33D0
:104B400000221A70754B03F58C530A3301221A7038
:104B5000724B03F58C530E3301221A706F4B03F521
:104B60008853D3ED007AB3EE047A67EE877A6B4B05
:104B700003F588531033C3ED007A684B03F5845373
:104B800018334FF000006649C3E90001BEE0624BF4
:104B900003F58E5313330C221A705F4B03F58E53BB
:104BA000163301221A705C4B03F58E530433002236
:104BB0001A605A4B03F58853D3ED007AB3EE047AAA
:104BC00067EE877A554B03F588531033C3ED007AAF
:104BD000524B03F58C530E3301221A704F4B03F5E1
:104BE0008C530D3301221A704C4B03F58C530C334C
:104BF00000221A70494B03F58C530A3301221A70B4
:104C0000464B03F588530C3393ED007AF1EE046ABA
:104C1000C7EE267A9FED437A67EE877A3F4B03F51E
:104C200088531433C3ED007A3C4B03F58C53103397
:104C300001221A70394B03F5845318334FF00000EA
:104C40003749C3E9000161E0334B03F58E53133359
:104C500001221A70304B03F58E53143301221A705F
:104C60002D4B03F58E53043300221A602B4B03F5B2
:104C70008C53103301221A70284B03F58C530B33DD
:104C800000221A70254B03F58753183393ED007AF1
:104C9000F1EE046AC7EE267A9FED227A67EE877AF4
:104CA0001E4B03F588531033C3ED007A1B4B03F5FD
:104CB0008C530A3301221A70184B03F58C530E33B0
:104CC00001221A70154B03F58C530F3301221A7011
:104CD000124B03F58853083393ED007AF1EE046A22
:104CE000C7EE267A9FED0F7A67EE877A0B4B03F5B6
:104CF00088531833C3ED007A084B03F584531033FF
:104D00004FF000000649C3E9000100BF00BFBD46E7
:104D10005DF8047B704700BF082700207015002055
:104D20000000F03F0000C84280B58AB000AF786054
:104D3000BF4B03F58E5316331B78012B03D0022B88
:104D400000F013817EE1BB4B03F58C53103301223D
:104D50001A707B681B78002B40F08B80B54B03F5F5
:104D6000895314331B881846FBF7E0FD02460B46B7
:104D7000ADA1D1E90001FBF77DFF02460B4643ECF4
:104D8000172BB0EE470AF0EE670A04F067FEB0EEAC
:104D9000407AF0EE607A87ED047B4FF00002A64B7C
:104DA000D7E90401FCF7AEF80346002B06D0D7E99B
:104DB0000401FCF70DF90346FB8302E04FF6FF7395
:104DC000FB839C4B03F587531C33D3ED007AB0EE85
:104DD000670A04F0BDFEF0EE407AC7ED037AD7ED26
:104DE000037A9FED967AF4EEC77AF1EE10FA11D5B8
:104DF000D7ED037AF5EEC07AF1EE10FA07DBD7EDC6
:104E0000037AFCEEE77A17EE903ABB8305E00023C5
:104E1000BB8302E04FF6FF73BB83FA8BBB8BD31AC5
:104E20003B62FB8B3A6A9A4201D900233B62814B79
:104E300003F5895318331B881A463B6A9B1A7B6219
:104E40007A6A3B6A9A4201D900237B62784B03F568
:104E50008E5304331B681A4613469B0013445B00B1
:104E60001A467B6A934294BF01230023DBB2FB7690
:104E700001E00023FB76FB7E002B2DD06C4B03F56D
:104E80008E53163302221A70694B03F58E53043386
:104E900000221A60674B03F58C530A3300221A7004
:104EA000644B03F58C530E3301221A70614B03F5EA
:104EB0008C530D3300221A705E4B03F58C530C3368
:104EC00001221A705B4B03F5845310334FF000003E
:104ED0005B49C3E9000124E17B681B78002B00F0EB
:104EE0002081534B03F58E53163303221A70504B17
:104EF00003F58E53043300221A604E4B03F58C5396
:104F0000103300221A704B4B03F58C530C330022E4
:104F10001A70484B03F58C530D3301221A70454B20
:104F200003F58853D3ED007AB3EE047A67EE877AFF
:104F3000404B03F588531033C3ED007A3D4B03F526
:104F40008C530A3300221A703A4B03F58C530E33FC
:104F500001221A70374B03F5845318334FF00000C9
:104F60004FF00001C3E90001DBE0314B03F58E5344
:104F700004331B681A4613469B0013445B0007EE7C
:104F8000903AB8EE677A2B4B03F587531C33D3ED79
:104F9000007AB4EEE77AF1EE10FA00DAC4E0244BBE
:104FA00003F58E53163303221A70214B03F58E53EB
:104FB000043300221A601F4B03F58C531033002278
:104FC0001A701C4B03F58C530C3300221A70194BCA
:104FD00003F58C530D3301221A70164B03F58853D9
:104FE000D3ED007AB3EE047A67EE877A114B03F5BE
:104FF00088531033C3ED007A0E4B03F58C530A33FC
:1050000000221A700B4B03F58C530E3301221A70D9
:10501000084B03F5845318334FF000004FF00001A4
:10502000C3E9000180E000BF00000000004CED403B
:1050300008270020701500200000F0400000804785
:105040000000F03F3A4B03F58C53103300221A70E6
:10505000384B03F58E5304331B681A4613469B00E6
:1050600013445B001A46324B03F5895318331B88EF
:105070009A4258D32F4B03F58E53163301221A70E0
:105080002C4B03F58E53043300221A60284B03F592
:105090008853D3ED007AB3EE047A67EE877A244B17
:1050A00003F588531033C3ED007A214B03F58C537D
:1050B0000E3301221A701E4B03F58C530D3301225F
:1050C0001A701B4B03F58C530C3300221A70184BCB
:1050D00003F58C530A3301221A70154B03F58853DC
:1050E0000C3393ED007AF1EE046AC7EE267A9FED59
:1050F000127A67EE877A0E4B03F588531433C3EDAB
:10510000007A0B4B03F58C53103301221A70084BB5
:1051100003F5845318334FF000000849C3E9000138
:1051200001E000BF00E000BF00BF2837BD4680BDE2
:1051300070150020082700200000C8420000F03F42
:1051400080B588B000AF7860934B03F58C53103373
:1051500001221A707B681B78002B40F099808E4BDF
:1051600003F5895316331B881846FBF7DFFB02460D
:105170000B4687A1D1E90001FBF77CFD02460B46F7
:1051800043EC172BB0EE470AF0EE670A04F066FC1A
:10519000B0EE407AF0EE607A7F4B03F58653103321
:1051A00083ED007B7C4B03F586531033D3E900017C
:1051B0004FF00002794BFBF7A5FE0346002B0CD005
:1051C000754B03F586531033D3E900231046194677
:1051D000FBF7FEFE0346FB8202E04FF6FF73FB8205
:1051E0006D4B03F587531C33D3ED007AB0EE670A9D
:1051F00004F0AEFCF0EE407AC7ED037AD7ED037A07
:105200009FED677AF4EEC77AF1EE10FA11D5D7ED7B
:10521000037AF5EEC07AF1EE10FA07DBD7ED037AE8
:10522000FCEEE77A17EE903ABB8205E00023BB82E2
:1052300002E04FF6FF73BB82FA8ABB8AD31ABB61C6
:10524000FB8ABA699A4201D90023BB61524B03F52C
:10525000895318331B881A46BB699B1AFB61FA698C
:10526000BB699A4201D90023FB614E4B03F58E5373
:1052700004331B681A4613469B0013445B001A460E
:10528000FB69934294BF01230023DBB2FB7401E06E
:105290000023FB74FB7C002B2DD0424B03F58E5377
:1052A00013330E221A703F4B03F58E530433002242
:1052B0001A60394B03F58C530A3300221A70364BAF
:1052C00003F58C530E3301221A70334B03F58C53C4
:1052D0000D3300221A70304B03F58C530C3301222E
:1052E0001A702D4B03F5845310334FF000002E49F4
:1052F000C3E9000146E07B681B78002B42D0294BB4
:1053000003F58E5313330F221A70264B03F58E5379
:10531000043300221A60204B03F58C531033002213
:105320001A701D4B03F58C530C3300221A701A4B64
:1053300003F58C530D3301221A70174B03F5885374
:10534000D3ED007AB3EE047A67EE877A124B03F559
:1053500088531033C3ED007A0F4B03F58C530A3397
:1053600000221A700C4B03F58C530E3301221A7075
:10537000094B03F5845318334FF000004FF0000140
:10538000C3E9000100BF2037BD4680BDAFF30080F8
:1053900000000000004CED40701500200000F040BF
:1053A00000008047082700200000F03F80B582B051
:1053B00000AF78607B6801225A60214B03F583536C
:1053C0000C334FF0FF321A601D4B03F5835310333B
:1053D00000221A601A4B03F583530C331B680A2210
:1053E00000211848FDF74EFB02467B681A617B6876
:1053F0001B694FF4E1311846FDF71CFE104B03F515
:105400008353143301221A700D4B03F58353153364
:1054100000221A707B681869094B03F58353153312
:105420001A78074B03F5835314331B780821FDF7D3
:105430000DFE7B6801221A7200BF0837BD4680BD91
:1054400070150020E025002080B584B002AF7860A0
:105450007B6801225A60714B03F583531633002297
:105460001A706E4B03F58353183300221A606B4B8E
:1054700003F5835318331A68684B03F583531633C7
:105480001B7819461046FEF7E5FA02467B689A62D9
:105490007B68634A5A627B689A6A7B685B6A1946D2
:1054A0001046FEF7FBFA5D4B03F58C5306332B22B7
:1054B0001A705A4B03F58C53073340221A707B68DD
:1054C000986A00230193002300930223554A1D216B
:1054D000FEF72FFB4FF4FA7006F082F84F4B03F5FE
:1054E0008C5309332A221A707B68986A002301932F
:1054F0000123009301234C4A1D21FEF71AFB0346AA
:105500001A46464B03F58C5309331A70434B03F587
:105510008C5309331B78002B10D17B68986A0123C8
:1055200001930023009301233F4A1D21FEF7CDFA8A
:1055300001223D493D48FCF789FE05E0374B03F564
:105540008C53083300221A70344B03F58C53063306
:105550002A221A70314B03F58C5308331B7823F041
:105560000103DAB22D4B03F58C5307331A707B68B5
:10557000986A00230193002300930223294A1D21E6
:10558000FEF7D7FA254B03F58C5306330E221A701B
:10559000224B03F58C53073301221A707B68986AFB
:1055A000002301930023009302231E4A1D21FEF7CE
:1055B000C0FA1A4B03F58C5306335B221A70174B53
:1055C00003F58C53073300221A707B68986A002316
:1055D0000193002300930223124A1D21FEF7A9FA2A
:1055E0000E4B03F58C5306332A221A700B4B03F52E
:1055F0008C53073301221A707B68986A0023019349
:10560000002300930223074A1D21FEF792FA7B68CC
:1056100001221A7200BF0837BD4680BD70150020F8
:10562000A0860100F6260020F9260020F82600209A
:1056300080B483B000AF78607B6800221A727B6808
:1056400001225A607B6801221A637B6801225A6337
:105650007B6800229A637B6800229A637B6803F16F
:1056600038027B68DA627B6801221A727B6800224A
:105670005A7200BF0C37BD465DF8047B704780B599
:1056800000AFFEF761FC00BF80BD0000000000001D
:10569000B0B58CB002AF9B4B03F585531833D3E9FB
:1056A0000001994BD3E90423FBF722FC0346002BAE
:1056B00008D1954BD3E90401924B03F58553183378
:1056C000C3E900018F4B03F5855310331B682E226D
:1056D0008E491846FDF7CEFC0346FB702E228B49FF
:1056E0008B48FCF7B3FD874B03F58E5312331B78C1
:1056F000002B6ED1834B03F58E53123301221A70A7
:10570000804B03F58E53113302221A70814B03F53F
:105710008A5301221A807F4B03F5895316331E22C8
:105720001A807C4B03F588534FF000021A60794BC6
:1057300003F588530433784A1A60764B03F5875390
:1057400018334FF000021A60724B03F587531C3375
:10575000714A1A606F4B03F58953183396221A80E9
:105760006C4B03F589531A3396221A80694B03F563
:1057700089531C3332221A80664B03F58853083351
:105780004FF07A521A60634B03F588530C334FF095
:105790007A521A605F4B03F589531E3396221A80A2
:1057A0005C4B03F58A53083300221A80594B03F5EA
:1057B0008A5302330A221A80564B03F58A53063362
:1057C00001221A80534B03F58A53043302221A80B4
:1057D000E6E04C4B03F58E5311331B78032B14D0AA
:1057E000032B19DC012B02D0022B07D014E0454B10
:1057F00003F58E53113304221A70D1E0414B03F5A7
:105800008E53113304221A70CAE03E4B03F58E53B7
:10581000113304221A70C3E0FB78002B40F0BE80E5
:105820003C4B03F5805310331B78162B40F0B680A9
:10583000384B03F5805311331B78222B59D0552B4D
:1058400040F0AD802F4B03F58E53113303221A70B5
:10585000022232493248FCF7F9FC0222314932482F
:10586000FCF7F4FC042231493148FCF7EFFC042238
:1058700030493148FCF7EAFC042230493048FCF753
:10588000E5FC04222F493048FCF7E0FC02222F49B6
:105890002F48FCF7DBFC02222E492F48FCF7D6FCF0
:1058A00002222E492E48FCF7D1FC04222D492E4815
:1058B000FCF7CCFC04222D492D48FCF7C7FC022242
:1058C0002C492D48FCF7C2FC02222C492C48FCF73D
:1058D000BDFC02222B492C48FCF7B8FC02222B49C4
:1058E0002B48FCF7B3FC02222A492B48FCF7AEFCFC
:1058F00055E0044B03F58E53113301221A7002F068
:105900000DFD4CE00827002080060020AE25002079
:105910008025002070150020CDCC4C3D8225002034
:10592000B026002084250020A62600208625002001
:10593000702600208A250020742600208E25002055
:1059400068260020922500206C2600209625002045
:10595000A826002098250020AA2600209A250020AD
:10596000AC2600209C25002078260020A0250020C1
:105970007C260020A4250020AE260020A62500209D
:10598000B8260020A8250020B2260020AA25002045
:10599000B6260020AC250020B426002000BF00BFA2
:1059A0005A4B03F582531833D3E90001584BD3E91E
:1059B0000023FBF79DFA0346002B08D1544BD3E993
:1059C0000001524B03F582531833C3E900014F4BDA
:1059D00003F5825310331B681846FCF70FFE03468D
:1059E000BB704A4B03F581531833D3E90001484B90
:1059F000D3E90223FBF77CFA0346002B08D1444B82
:105A0000D3E90201414B03F581531833C3E9000187
:105A10003E4B03F5815310331B681846FCF7EEFD2F
:105A200003467B70394B03F58053D3E90001384BB3
:105A3000D3E90623FBF75CFA0346002B07D1344B6E
:105A4000D3E90623314901F58051C1E9002301233F
:105A5000FB702E4B03F5805318331868FA1C002393
:105A600001930123009301231D21FEF762F80346F1
:105A7000FB70FB78002B53D1244B03F58053183374
:105A8000186807F10C0201230193002300930623F9
:105A90001D21FEF71AF807F10C03062219461D48CE
:105AA000FCF7D4FB3B1D02221A491846FCF7CEFB3B
:105AB0007B793B723B797B7207F10803022219461E
:105AC0001448FCF7C3FB3B1D022213491846FCF7A0
:105AD000BDFB7B793B723B797B7207F108030222A5
:105AE00019460D48FCF7B2FB3B1D02220B49184634
:105AF000FCF7ACFB7B793B723B797B7207F10803C7
:105B0000022219460548FCF7A1FB1BE008270020EC
:105B100080060020482600204A2600204C2600202F
:105B2000B54B03F58653183300221A80B24B03F5A8
:105B300086531A3300221A80AF4B03F586531C3369
:105B400000221A80AC4B03F586531833B3F90030AA
:105B50009B101BB21846FAF7F9FE02460B46FAF7FD
:105B6000A9FD02460B4610461946A1A3D3E900231E
:105B7000FAF756FF02460B46104619464FF0000250
:105B80009E4BFBF777F802460B46104619469A4B98
:105B900003F585531833C3E90001974B03F586538A
:105BA0001A33B3F900309B101BB21846FAF7CEFE39
:105BB00002460B46FAF77EFD02460B461046194692
:105BC0008BA3D3E90023FAF72BFF02460B461046BE
:105BD00019464FF00002894BFBF74CF802460B4682
:105BE000854901F58651C1E90023834B03F58653AE
:105BF0001C33B3F900309B101BB21846FAF7A6FE0F
:105C000002460B46FAF756FD02460B461046194669
:105C100077A3D3E90023FAF703FF02460B461046A9
:105C200019464FF00002754BFBF724F802460B466D
:105C300010461946704B03F586530833C3E900013B
:105C40006D4B03F585531833D3E900016A4B03F517
:105C500085531833D3E90023FAF7E2FE02460B46D8
:105C600014461D46644B03F58653D3E90001624B8D
:105C700003F58653D3E90023FAF7D2FE02460B461A
:105C800020462946FAF716FD02460B4614461D46E5
:105C9000594B03F586530833D3E90001564B03F5FE
:105CA00086530833D3E90023FAF7BAFE02460B46BF
:105CB00020462946FAF7FEFC02460B4643EC172B1A
:105CC000B0EE470AF0EE670A08F022F8B0EE407A2C
:105CD000F0EE607A484B03F58553183383ED007B73
:105CE000474B5B7A002B02D0454B00225A72444B43
:105CF000DB6ABB61BB691B68012B62D0BB690022F8
:105D00001A71BB6901221A60B9694FF000024FF0A5
:105D10000003C1E9022300237B620DE0BA697B6ABC
:105D20000233DB00D1184FF000024FF00003C1E94D
